{
  "contractName": "ETHTornado",
  "abi": [
    {
      "inputs": [
        {
          "internalType": "contract IVerifier",
          "name": "_verifier",
          "type": "address"
        },
        {
          "internalType": "contract IHasher",
          "name": "_hasher",
          "type": "address"
        },
        {
          "internalType": "uint256",
          "name": "_denomination",
          "type": "uint256"
        },
        {
          "internalType": "uint32",
          "name": "_merkleTreeHeight",
          "type": "uint32"
        }
      ],
      "stateMutability": "nonpayable",
      "type": "constructor"
    },
    {
      "anonymous": false,
      "inputs": [
        {
          "indexed": true,
          "internalType": "bytes32",
          "name": "commitment",
          "type": "bytes32"
        },
        {
          "indexed": false,
          "internalType": "uint32",
          "name": "leafIndex",
          "type": "uint32"
        },
        {
          "indexed": false,
          "internalType": "uint256",
          "name": "timestamp",
          "type": "uint256"
        }
      ],
      "name": "Deposit",
      "type": "event"
    },
    {
      "anonymous": false,
      "inputs": [
        {
          "indexed": false,
          "internalType": "address",
          "name": "to",
          "type": "address"
        },
        {
          "indexed": false,
          "internalType": "bytes32",
          "name": "nullifierHash",
          "type": "bytes32"
        },
        {
          "indexed": true,
          "internalType": "address",
          "name": "relayer",
          "type": "address"
        },
        {
          "indexed": false,
          "internalType": "uint256",
          "name": "fee",
          "type": "uint256"
        }
      ],
      "name": "Withdrawal",
      "type": "event"
    },
    {
      "inputs": [],
      "name": "FIELD_SIZE",
      "outputs": [
        {
          "internalType": "uint256",
          "name": "",
          "type": "uint256"
        }
      ],
      "stateMutability": "view",
      "type": "function"
    },
    {
      "inputs": [],
      "name": "ROOT_HISTORY_SIZE",
      "outputs": [
        {
          "internalType": "uint32",
          "name": "",
          "type": "uint32"
        }
      ],
      "stateMutability": "view",
      "type": "function"
    },
    {
      "inputs": [],
      "name": "ZERO_VALUE",
      "outputs": [
        {
          "internalType": "uint256",
          "name": "",
          "type": "uint256"
        }
      ],
      "stateMutability": "view",
      "type": "function"
    },
    {
      "inputs": [
        {
          "internalType": "bytes32",
          "name": "",
          "type": "bytes32"
        }
      ],
      "name": "commitments",
      "outputs": [
        {
          "internalType": "bool",
          "name": "",
          "type": "bool"
        }
      ],
      "stateMutability": "view",
      "type": "function"
    },
    {
      "inputs": [],
      "name": "currentRootIndex",
      "outputs": [
        {
          "internalType": "uint32",
          "name": "",
          "type": "uint32"
        }
      ],
      "stateMutability": "view",
      "type": "function"
    },
    {
      "inputs": [],
      "name": "denomination",
      "outputs": [
        {
          "internalType": "uint256",
          "name": "",
          "type": "uint256"
        }
      ],
      "stateMutability": "view",
      "type": "function"
    },
    {
      "inputs": [
        {
          "internalType": "bytes32",
          "name": "_commitment",
          "type": "bytes32"
        }
      ],
      "name": "deposit",
      "outputs": [],
      "stateMutability": "payable",
      "type": "function"
    },
    {
      "inputs": [
        {
          "internalType": "uint256",
          "name": "",
          "type": "uint256"
        }
      ],
      "name": "filledSubtrees",
      "outputs": [
        {
          "internalType": "bytes32",
          "name": "",
          "type": "bytes32"
        }
      ],
      "stateMutability": "view",
      "type": "function"
    },
    {
      "inputs": [],
      "name": "getLastRoot",
      "outputs": [
        {
          "internalType": "bytes32",
          "name": "",
          "type": "bytes32"
        }
      ],
      "stateMutability": "view",
      "type": "function"
    },
    {
      "inputs": [
        {
          "internalType": "contract IHasher",
          "name": "_hasher",
          "type": "address"
        },
        {
          "internalType": "bytes32",
          "name": "_left",
          "type": "bytes32"
        },
        {
          "internalType": "bytes32",
          "name": "_right",
          "type": "bytes32"
        }
      ],
      "name": "hashLeftRight",
      "outputs": [
        {
          "internalType": "bytes32",
          "name": "",
          "type": "bytes32"
        }
      ],
      "stateMutability": "pure",
      "type": "function"
    },
    {
      "inputs": [],
      "name": "hasher",
      "outputs": [
        {
          "internalType": "contract IHasher",
          "name": "",
          "type": "address"
        }
      ],
      "stateMutability": "view",
      "type": "function"
    },
    {
      "inputs": [
        {
          "internalType": "bytes32",
          "name": "_root",
          "type": "bytes32"
        }
      ],
      "name": "isKnownRoot",
      "outputs": [
        {
          "internalType": "bool",
          "name": "",
          "type": "bool"
        }
      ],
      "stateMutability": "view",
      "type": "function"
    },
    {
      "inputs": [
        {
          "internalType": "bytes32",
          "name": "_nullifierHash",
          "type": "bytes32"
        }
      ],
      "name": "isSpent",
      "outputs": [
        {
          "internalType": "bool",
          "name": "",
          "type": "bool"
        }
      ],
      "stateMutability": "view",
      "type": "function"
    },
    {
      "inputs": [
        {
          "internalType": "bytes32[]",
          "name": "_nullifierHashes",
          "type": "bytes32[]"
        }
      ],
      "name": "isSpentArray",
      "outputs": [
        {
          "internalType": "bool[]",
          "name": "spent",
          "type": "bool[]"
        }
      ],
      "stateMutability": "view",
      "type": "function"
    },
    {
      "inputs": [],
      "name": "levels",
      "outputs": [
        {
          "internalType": "uint32",
          "name": "",
          "type": "uint32"
        }
      ],
      "stateMutability": "view",
      "type": "function"
    },
    {
      "inputs": [],
      "name": "nextIndex",
      "outputs": [
        {
          "internalType": "uint32",
          "name": "",
          "type": "uint32"
        }
      ],
      "stateMutability": "view",
      "type": "function"
    },
    {
      "inputs": [
        {
          "internalType": "bytes32",
          "name": "",
          "type": "bytes32"
        }
      ],
      "name": "nullifierHashes",
      "outputs": [
        {
          "internalType": "bool",
          "name": "",
          "type": "bool"
        }
      ],
      "stateMutability": "view",
      "type": "function"
    },
    {
      "inputs": [
        {
          "internalType": "uint256",
          "name": "",
          "type": "uint256"
        }
      ],
      "name": "roots",
      "outputs": [
        {
          "internalType": "bytes32",
          "name": "",
          "type": "bytes32"
        }
      ],
      "stateMutability": "view",
      "type": "function"
    },
    {
      "inputs": [],
      "name": "verifier",
      "outputs": [
        {
          "internalType": "contract IVerifier",
          "name": "",
          "type": "address"
        }
      ],
      "stateMutability": "view",
      "type": "function"
    },
    {
      "inputs": [
        {
          "internalType": "bytes",
          "name": "_proof",
          "type": "bytes"
        },
        {
          "internalType": "bytes32",
          "name": "_root",
          "type": "bytes32"
        },
        {
          "internalType": "bytes32",
          "name": "_nullifierHash",
          "type": "bytes32"
        },
        {
          "internalType": "address payable",
          "name": "_recipient",
          "type": "address"
        },
        {
          "internalType": "address payable",
          "name": "_relayer",
          "type": "address"
        },
        {
          "internalType": "uint256",
          "name": "_fee",
          "type": "uint256"
        },
        {
          "internalType": "uint256",
          "name": "_refund",
          "type": "uint256"
        }
      ],
      "name": "withdraw",
      "outputs": [],
      "stateMutability": "payable",
      "type": "function"
    },
    {
      "inputs": [
        {
          "internalType": "uint256",
          "name": "i",
          "type": "uint256"
        }
      ],
      "name": "zeros",
      "outputs": [
        {
          "internalType": "bytes32",
          "name": "",
          "type": "bytes32"
        }
      ],
      "stateMutability": "pure",
      "type": "function"
    }
  ],
  "bytecode": "0x60c06040526000600360006101000a81548163ffffffff021916908363ffffffff1602179055506000600360046101000a81548163ffffffff021916908363ffffffff1602179055503480156200005557600080fd5b5060405162002ba638038062002ba6833981810160405260808110156200007b57600080fd5b810190808051906020019092919080519060200190929190805190602001909291908051906020019092919050505083838383808360008263ffffffff161162000111576040517f08c379a000000000000000000000000000000000000000000000000000000000815260040180806020018281038252602381526020018062002b836023913960400191505060405180910390fd5b60208263ffffffff16106200018e576040517f08c379a000000000000000000000000000000000000000000000000000000000815260040180806020018281038252601e8152602001807f5f6c6576656c732073686f756c64206265206c657373207468616e203332000081525060200191505060405180910390fd5b816000806101000a81548163ffffffff021916908363ffffffff1602179055508073ffffffffffffffffffffffffffffffffffffffff1660808173ffffffffffffffffffffffffffffffffffffffff1660601b8152505060005b8263ffffffff168163ffffffff1610156200023f57620002148163ffffffff166200032260201b60201c565b600160008363ffffffff168152602001908152602001600020819055508080600101915050620001e8565b506200025a6001830363ffffffff166200032260201b60201c565b60026000808152602001908152602001600020819055505050600160048190555060008211620002d6576040517f08c379a000000000000000000000000000000000000000000000000000000000815260040180806020018281038252602581526020018062002b5e6025913960400191505060405180910390fd5b8373ffffffffffffffffffffffffffffffffffffffff1660a08173ffffffffffffffffffffffffffffffffffffffff1660601b8152505081600581905550505050505050505062000a54565b60008082141562000359577f2fe54c60d3acabf3343a35b6eba15db4821b340f76e741e2249685ed4899af6c60001b905062000a4f565b60018214156200038f577f256a6135777eee2fd26f54b8b7037a25439d5235caee224154186d2b8a52e31d60001b905062000a4f565b6002821415620003c5577f1151949895e82ab19924de92c40a3d6f7bcb60d92b00504b8199613683f0c20060001b905062000a4f565b6003821415620003fb577f20121ee811489ff8d61f09fb89e313f14959a0f28bb428a20dba6b0b068b3bdb60001b905062000a4f565b600482141562000431577f0a89ca6ffa14cc462cfedb842c30ed221a50a3d6bf022a6a57dc82ab24c157c960001b905062000a4f565b600582141562000467577f24ca05c2b5cd42e890d6be94c68d0689f4f21c9cec9c0f13fe41d566dfb5495960001b905062000a4f565b60068214156200049d577f1ccb97c932565a92c60156bdba2d08f3bf1377464e025cee765679e604a7315c60001b905062000a4f565b6007821415620004d3577f19156fbd7d1a8bf5cba8909367de1b624534ebab4f0f79e003bccdd1b182bdb460001b905062000a4f565b600882141562000509577f261af8c1f0912e465744641409f622d466c3920ac6e5ff37e36604cb11dfff8060001b905062000a4f565b60098214156200053e577e58459724ff6ca5a1652fcbc3e82b93895cf08e975b19beab3f54c217d1c00760001b905062000a4f565b600a82141562000574577f1f04ef20dee48d39984d8eabe768a70eafa6310ad20849d4573c3c40c2ad1e3060001b905062000a4f565b600b821415620005aa577f1bea3dec5dab51567ce7e200a30f7ba6d4276aeaa53e2686f962a46c66d511e560001b905062000a4f565b600c821415620005e0577f0ee0f941e2da4b9e31c3ca97a40d8fa9ce68d97c084177071b3cb46cd3372f0f60001b905062000a4f565b600d82141562000616577f1ca9503e8935884501bbaf20be14eb4c46b89772c97b96e3b2ebf3a36a948bbd60001b905062000a4f565b600e8214156200064c577f133a80e30697cd55d8f7d4b0965b7be24057ba5dc3da898ee2187232446cb10860001b905062000a4f565b600f82141562000682577f13e6d8fc88839ed76e182c2a779af5b2c0da9dd18c90427a644f7e148a6253b660001b905062000a4f565b6010821415620006b8577f1eb16b057a477f4bc8f572ea6bee39561098f78f15bfb3699dcbb7bd8db6185460001b905062000a4f565b6011821415620006ee577f0da2cb16a1ceaabf1c16b838f7a9e3f2a3a3088d9e0a6debaa748114620696ea60001b905062000a4f565b601282141562000724577f24a3b3d822420b14b5d8cb6c28a574f01e98ea9e940551d2ebd75cee12649f9d60001b905062000a4f565b60138214156200075a577f198622acbd783d1b0d9064105b1fc8e4d8889de95c4c519b3f635809fe6afc0560001b905062000a4f565b601482141562000790577f29d7ed391256ccc3ea596c86e933b89ff339d25ea8ddced975ae2fe30b5296d460001b905062000a4f565b6015821415620007c6577f19be59f2f0413ce78c0c3703a3a5451b1d7f39629fa33abd11548a76065b296760001b905062000a4f565b6016821415620007fc577f1ff3f61797e538b70e619310d33f2a063e7eb59104e112e95738da1254dc345360001b905062000a4f565b601782141562000832577f10c16ae9959cf8358980d9dd9616e48228737310a10e2b6b731c1a548f036c4860001b905062000a4f565b601882141562000868577f0ba433a63174a90ac20992e75e3095496812b652685b5e1a2eae0b1bf4e8fcd160001b905062000a4f565b60198214156200089e577f019ddb9df2bc98d987d0dfeca9d2b643deafab8f7036562e627c3667266a044c60001b905062000a4f565b601a821415620008d4577f2d3c88b23175c5a5565db928414c66d1912b11acf974b2e644caaac04739ce9960001b905062000a4f565b601b8214156200090a577f2eab55f6ae4e66e32c5189eed5c470840863445760f5ed7e7b69b2a62600f35460001b905062000a4f565b601c8214156200093f577e2df37a2642621802383cf952bf4dd1f32e05433beeb1fd41031fb7eace979d60001b905062000a4f565b601d82141562000975577f104aeb41435db66c3e62feccc1d6f5d98d0a0ed75d1374db457cf462e3a1f42760001b905062000a4f565b601e821415620009ab577f1f3c6fd858e9a7d4b0d1f38e256a09d81d5a5e3c963987e2d4b814cfab7c6ebb60001b905062000a4f565b601f821415620009e1577f2c7a07d20dff79d01fecedc1134284a8d08436606c93693b67e333f671bf69cc60001b905062000a4f565b6040517f08c379a00000000000000000000000000000000000000000000000000000000081526004018080602001828103825260138152602001807f496e646578206f7574206f6620626f756e64730000000000000000000000000081525060200191505060405180910390fd5b919050565b60805160601c60a05160601c6120d662000a88600039806109df5280610c77525080611a1f5280611dff52506120d66000f3fe60806040526004361061012a5760003560e01c80639fa12d0b116100ab578063e5285dcc1161006f578063e5285dcc14610629578063e82955881461067a578063ec732959146106c9578063ed33639f146106f4578063f178e47c14610735578063fc7e9c6f146107845761012a565b80639fa12d0b14610475578063b214faa514610550578063ba70f7571461057e578063c2b40ae4146105a9578063cd87a3b4146105f85761012a565b80636d9833e3116100f25780636d9833e3146102fe578063839df9451461034f5780638bca6d16146103a05780638ea3099e146103cb57806390eeb02b146104445761012a565b806317cc915c1461012f57806321a0adb6146101805780632b7ac3f314610261578063414a37ba146102a25780634ecf518b146102cd575b600080fd5b34801561013b57600080fd5b506101686004803603602081101561015257600080fd5b81019080803590602001909291905050506107b5565b60405180821515815260200191505060405180910390f35b61025f600480360360e081101561019657600080fd5b81019080803590602001906401000000008111156101b357600080fd5b8201836020820111156101c557600080fd5b803590602001918460018302840111640100000000831117156101e757600080fd5b90919293919293908035906020019092919080359060200190929190803573ffffffffffffffffffffffffffffffffffffffff169060200190929190803573ffffffffffffffffffffffffffffffffffffffff16906020019092919080359060200190929190803590602001909291905050506107d5565b005b34801561026d57600080fd5b50610276610c75565b604051808273ffffffffffffffffffffffffffffffffffffffff16815260200191505060405180910390f35b3480156102ae57600080fd5b506102b7610c99565b6040518082815260200191505060405180910390f35b3480156102d957600080fd5b506102e2610cbd565b604051808263ffffffff16815260200191505060405180910390f35b34801561030a57600080fd5b506103376004803603602081101561032157600080fd5b8101908080359060200190929190505050610cd1565b60405180821515815260200191505060405180910390f35b34801561035b57600080fd5b506103886004803603602081101561037257600080fd5b8101908080359060200190929190505050610d6d565b60405180821515815260200191505060405180910390f35b3480156103ac57600080fd5b506103b5610d8d565b6040518082815260200191505060405180910390f35b3480156103d757600080fd5b5061042e600480360360608110156103ee57600080fd5b81019080803573ffffffffffffffffffffffffffffffffffffffff1690602001909291908035906020019092919080359060200190929190505050610d93565b6040518082815260200191505060405180910390f35b34801561045057600080fd5b5061045961103b565b604051808263ffffffff16815260200191505060405180910390f35b34801561048157600080fd5b506104f96004803603602081101561049857600080fd5b81019080803590602001906401000000008111156104b557600080fd5b8201836020820111156104c757600080fd5b803590602001918460208302840111640100000000831117156104e957600080fd5b9091929391929390505050611051565b6040518080602001828103825283818151815260200191508051906020019060200280838360005b8381101561053c578082015181840152602081019050610521565b505050509050019250505060405180910390f35b61057c6004803603602081101561056657600080fd5b8101908080359060200190929190505050611102565b005b34801561058a57600080fd5b5061059361128d565b6040518082815260200191505060405180910390f35b3480156105b557600080fd5b506105e2600480360360208110156105cc57600080fd5b81019080803590602001909291905050506112c0565b6040518082815260200191505060405180910390f35b34801561060457600080fd5b5061060d6112d8565b604051808263ffffffff16815260200191505060405180910390f35b34801561063557600080fd5b506106626004803603602081101561064c57600080fd5b81019080803590602001909291905050506112dd565b60405180821515815260200191505060405180910390f35b34801561068657600080fd5b506106b36004803603602081101561069d57600080fd5b8101908080359060200190929190505050611307565b6040518082815260200191505060405180910390f35b3480156106d557600080fd5b506106de6119f9565b6040518082815260200191505060405180910390f35b34801561070057600080fd5b50610709611a1d565b604051808273ffffffffffffffffffffffffffffffffffffffff16815260200191505060405180910390f35b34801561074157600080fd5b5061076e6004803603602081101561075857600080fd5b8101908080359060200190929190505050611a41565b6040518082815260200191505060405180910390f35b34801561079057600080fd5b50610799611a59565b604051808263ffffffff16815260200191505060405180910390f35b60066020528060005260406000206000915054906101000a900460ff1681565b6002600454141561084e576040517f08c379a000000000000000000000000000000000000000000000000000000000815260040180806020018281038252601f8152602001807f5265656e7472616e637947756172643a207265656e7472616e742063616c6c0081525060200191505060405180910390fd5b60026004819055506005548211156108ce576040517f08c379a000000000000000000000000000000000000000000000000000000000815260040180806020018281038252601a8152602001807f4665652065786365656473207472616e736665722076616c756500000000000081525060200191505060405180910390fd5b6006600086815260200190815260200160002060009054906101000a900460ff1615610962576040517f08c379a000000000000000000000000000000000000000000000000000000000815260040180806020018281038252601f8152602001807f546865206e6f746520686173206265656e20616c7265616479207370656e740081525060200191505060405180910390fd5b61096b86610cd1565b6109dd576040517f08c379a000000000000000000000000000000000000000000000000000000000815260040180806020018281038252601c8152602001807f43616e6e6f742066696e6420796f7572206d65726b6c6520726f6f740000000081525060200191505060405180910390fd5b7f000000000000000000000000000000000000000000000000000000000000000073ffffffffffffffffffffffffffffffffffffffff1663695ef6f989896040518060c001604052808b60001c81526020018a60001c81526020018973ffffffffffffffffffffffffffffffffffffffff1681526020018873ffffffffffffffffffffffffffffffffffffffff168152602001878152602001868152506040518463ffffffff1660e01b8152600401808060200183600660200280838360005b83811015610ab8578082015181840152602081019050610a9d565b505050509050018281038252858582818152602001925080828437600081840152601f19601f820116905080830192505050945050505050602060405180830381600087803b158015610b0a57600080fd5b505af1158015610b1e573d6000803e3d6000fd5b505050506040513d6020811015610b3457600080fd5b8101908080519060200190929190505050610bb7576040517f08c379a00000000000000000000000000000000000000000000000000000000081526004018080602001828103825260168152602001807f496e76616c69642077697468647261772070726f6f660000000000000000000081525060200191505060405180910390fd5b60016006600087815260200190815260200160002060006101000a81548160ff021916908315150217905550610bef84848484611a6f565b8273ffffffffffffffffffffffffffffffffffffffff167fe9e508bad6d4c3227e881ca19068f099da81b5164dd6d62b2eaf1e8bc6c34931858785604051808473ffffffffffffffffffffffffffffffffffffffff168152602001838152602001828152602001935050505060405180910390a260016004819055505050505050505050565b7f000000000000000000000000000000000000000000000000000000000000000081565b7f30644e72e131a029b85045b68181585d2833e84879b9709143e1f593f000000181565b60008054906101000a900463ffffffff1681565b60008060001b821415610ce75760009050610d68565b6000600360009054906101000a900463ffffffff16905060008190505b600260008263ffffffff16815260200190815260200160002054841415610d3057600192505050610d68565b60008163ffffffff161415610d4457601e90505b8080600190039150508163ffffffff168163ffffffff161415610d04576000925050505b919050565b60076020528060005260406000206000915054906101000a900460ff1681565b60055481565b60007f30644e72e131a029b85045b68181585d2833e84879b9709143e1f593f00000018360001c10610e2d576040517f08c379a00000000000000000000000000000000000000000000000000000000081526004018080602001828103825260208152602001807f5f6c6566742073686f756c6420626520696e7369646520746865206669656c6481525060200191505060405180910390fd5b7f30644e72e131a029b85045b68181585d2833e84879b9709143e1f593f00000018260001c10610ea8576040517f08c379a0000000000000000000000000000000000000000000000000000000008152600401808060200182810382526021815260200180611f7e6021913960400191505060405180910390fd5b60008360001c905060008573ffffffffffffffffffffffffffffffffffffffff1663f47d33b583836040518363ffffffff1660e01b81526004018083815260200182815260200192505050604080518083038186803b158015610f0a57600080fd5b505afa158015610f1e573d6000803e3d6000fd5b505050506040513d6040811015610f3457600080fd5b81019080805190602001909291908051906020019092919050505080925081935050507f30644e72e131a029b85045b68181585d2833e84879b9709143e1f593f000000180610f7f57fe5b8460001c830891508573ffffffffffffffffffffffffffffffffffffffff1663f47d33b583836040518363ffffffff1660e01b81526004018083815260200182815260200192505050604080518083038186803b158015610fdf57600080fd5b505afa158015610ff3573d6000803e3d6000fd5b505050506040513d604081101561100957600080fd5b81019080805190602001909291908051906020019092919050505080925081935050508160001b925050509392505050565b600360009054906101000a900463ffffffff1681565b60608282905067ffffffffffffffff8111801561106d57600080fd5b5060405190808252806020026020018201604052801561109c5781602001602082028036833780820191505090505b50905060005b838390508110156110fb576110c88484838181106110bc57fe5b905060200201356112dd565b156110ee5760018282815181106110db57fe5b6020026020010190151590811515815250505b80806001019150506110a2565b5092915050565b6002600454141561117b576040517f08c379a000000000000000000000000000000000000000000000000000000000815260040180806020018281038252601f8152602001807f5265656e7472616e637947756172643a207265656e7472616e742063616c6c0081525060200191505060405180910390fd5b60026004819055506007600082815260200190815260200160002060009054906101000a900460ff16156111fa576040517f08c379a0000000000000000000000000000000000000000000000000000000008152600401808060200182810382526021815260200180611fd36021913960400191505060405180910390fd5b600061120582611cb4565b905060016007600084815260200190815260200160002060006101000a81548160ff02191690831515021790555061123b611ee9565b817fa945e51eec50ab98c161376f0db4cf2aeba3ec92755fe2fcd388bdbbb80ff1968242604051808363ffffffff1681526020018281526020019250505060405180910390a250600160048190555050565b600060026000600360009054906101000a900463ffffffff1663ffffffff16815260200190815260200160002054905090565b60026020528060005260406000206000915090505481565b601e81565b60006006600083815260200190815260200160002060009054906101000a900460ff169050919050565b60008082141561133c577f2fe54c60d3acabf3343a35b6eba15db4821b340f76e741e2249685ed4899af6c60001b90506119f4565b6001821415611370577f256a6135777eee2fd26f54b8b7037a25439d5235caee224154186d2b8a52e31d60001b90506119f4565b60028214156113a4577f1151949895e82ab19924de92c40a3d6f7bcb60d92b00504b8199613683f0c20060001b90506119f4565b60038214156113d8577f20121ee811489ff8d61f09fb89e313f14959a0f28bb428a20dba6b0b068b3bdb60001b90506119f4565b600482141561140c577f0a89ca6ffa14cc462cfedb842c30ed221a50a3d6bf022a6a57dc82ab24c157c960001b90506119f4565b6005821415611440577f24ca05c2b5cd42e890d6be94c68d0689f4f21c9cec9c0f13fe41d566dfb5495960001b90506119f4565b6006821415611474577f1ccb97c932565a92c60156bdba2d08f3bf1377464e025cee765679e604a7315c60001b90506119f4565b60078214156114a8577f19156fbd7d1a8bf5cba8909367de1b624534ebab4f0f79e003bccdd1b182bdb460001b90506119f4565b60088214156114dc577f261af8c1f0912e465744641409f622d466c3920ac6e5ff37e36604cb11dfff8060001b90506119f4565b600982141561150f577e58459724ff6ca5a1652fcbc3e82b93895cf08e975b19beab3f54c217d1c00760001b90506119f4565b600a821415611543577f1f04ef20dee48d39984d8eabe768a70eafa6310ad20849d4573c3c40c2ad1e3060001b90506119f4565b600b821415611577577f1bea3dec5dab51567ce7e200a30f7ba6d4276aeaa53e2686f962a46c66d511e560001b90506119f4565b600c8214156115ab577f0ee0f941e2da4b9e31c3ca97a40d8fa9ce68d97c084177071b3cb46cd3372f0f60001b90506119f4565b600d8214156115df577f1ca9503e8935884501bbaf20be14eb4c46b89772c97b96e3b2ebf3a36a948bbd60001b90506119f4565b600e821415611613577f133a80e30697cd55d8f7d4b0965b7be24057ba5dc3da898ee2187232446cb10860001b90506119f4565b600f821415611647577f13e6d8fc88839ed76e182c2a779af5b2c0da9dd18c90427a644f7e148a6253b660001b90506119f4565b601082141561167b577f1eb16b057a477f4bc8f572ea6bee39561098f78f15bfb3699dcbb7bd8db6185460001b90506119f4565b60118214156116af577f0da2cb16a1ceaabf1c16b838f7a9e3f2a3a3088d9e0a6debaa748114620696ea60001b90506119f4565b60128214156116e3577f24a3b3d822420b14b5d8cb6c28a574f01e98ea9e940551d2ebd75cee12649f9d60001b90506119f4565b6013821415611717577f198622acbd783d1b0d9064105b1fc8e4d8889de95c4c519b3f635809fe6afc0560001b90506119f4565b601482141561174b577f29d7ed391256ccc3ea596c86e933b89ff339d25ea8ddced975ae2fe30b5296d460001b90506119f4565b601582141561177f577f19be59f2f0413ce78c0c3703a3a5451b1d7f39629fa33abd11548a76065b296760001b90506119f4565b60168214156117b3577f1ff3f61797e538b70e619310d33f2a063e7eb59104e112e95738da1254dc345360001b90506119f4565b60178214156117e7577f10c16ae9959cf8358980d9dd9616e48228737310a10e2b6b731c1a548f036c4860001b90506119f4565b601882141561181b577f0ba433a63174a90ac20992e75e3095496812b652685b5e1a2eae0b1bf4e8fcd160001b90506119f4565b601982141561184f577f019ddb9df2bc98d987d0dfeca9d2b643deafab8f7036562e627c3667266a044c60001b90506119f4565b601a821415611883577f2d3c88b23175c5a5565db928414c66d1912b11acf974b2e644caaac04739ce9960001b90506119f4565b601b8214156118b7577f2eab55f6ae4e66e32c5189eed5c470840863445760f5ed7e7b69b2a62600f35460001b90506119f4565b601c8214156118ea577e2df37a2642621802383cf952bf4dd1f32e05433beeb1fd41031fb7eace979d60001b90506119f4565b601d82141561191e577f104aeb41435db66c3e62feccc1d6f5d98d0a0ed75d1374db457cf462e3a1f42760001b90506119f4565b601e821415611952577f1f3c6fd858e9a7d4b0d1f38e256a09d81d5a5e3c963987e2d4b814cfab7c6ebb60001b90506119f4565b601f821415611986577f2c7a07d20dff79d01fecedc1134284a8d08436606c93693b67e333f671bf69cc60001b90506119f4565b6040517f08c379a00000000000000000000000000000000000000000000000000000000081526004018080602001828103825260138152602001807f496e646578206f7574206f6620626f756e64730000000000000000000000000081525060200191505060405180910390fd5b919050565b7f2fe54c60d3acabf3343a35b6eba15db4821b340f76e741e2249685ed4899af6c81565b7f000000000000000000000000000000000000000000000000000000000000000081565b60016020528060005260406000206000915090505481565b600360049054906101000a900463ffffffff1681565b60003414611ac8576040517f08c379a000000000000000000000000000000000000000000000000000000000815260040180806020018281038252603581526020018061206c6035913960400191505060405180910390fd5b60008114611b21576040517f08c379a0000000000000000000000000000000000000000000000000000000008152600401808060200182810382526034815260200180611f9f6034913960400191505060405180910390fd5b60008473ffffffffffffffffffffffffffffffffffffffff16836005540360405180600001905060006040518083038185875af1925050503d8060008114611b85576040519150601f19603f3d011682016040523d82523d6000602084013e611b8a565b606091505b5050905080611be4576040517f08c379a0000000000000000000000000000000000000000000000000000000008152600401808060200182810382526025815260200180611ff46025913960400191505060405180910390fd5b6000831115611cad578373ffffffffffffffffffffffffffffffffffffffff168360405180600001905060006040518083038185875af1925050503d8060008114611c4b576040519150601f19603f3d011682016040523d82523d6000602084013e611c50565b606091505b50508091505080611cac576040517f08c379a00000000000000000000000000000000000000000000000000000000081526004018080602001828103825260238152602001806120196023913960400191505060405180910390fd5b5b5050505050565b600080600360049054906101000a900463ffffffff16905060008054906101000a900463ffffffff1663ffffffff16600263ffffffff160a63ffffffff168163ffffffff161415611d50576040517f08c379a000000000000000000000000000000000000000000000000000000000815260040180806020018281038252603081526020018061203c6030913960400191505060405180910390fd5b6000819050600084905060008060005b60008054906101000a900463ffffffff1663ffffffff168163ffffffff161015611e4757600060028663ffffffff1681611d9657fe5b0663ffffffff161415611dda57839250611db58163ffffffff16611307565b915083600160008363ffffffff16815260200190815260200160002081905550611dfa565b600160008263ffffffff1681526020019081526020016000205492508391505b611e257f00000000000000000000000000000000000000000000000000000000000000008484610d93565b935060028563ffffffff1681611e3757fe5b0494508080600101915050611d60565b506000601e63ffffffff166001600360009054906101000a900463ffffffff160163ffffffff1681611e7557fe5b06905080600360006101000a81548163ffffffff021916908363ffffffff16021790555083600260008363ffffffff1681526020019081526020016000208190555060018601600360046101000a81548163ffffffff021916908363ffffffff160217905550859650505050505050919050565b6005543414611f43576040517f08c379a0000000000000000000000000000000000000000000000000000000008152600401808060200182810382526038815260200180611f466038913960400191505060405180910390fd5b56fe506c656173652073656e6420606d697844656e6f6d696e6174696f6e602045544820616c6f6e672077697468207472616e73616374696f6e5f72696768742073686f756c6420626520696e7369646520746865206669656c64526566756e642076616c756520697320737570706f73656420746f206265207a65726f20666f722045544820696e7374616e636554686520636f6d6d69746d656e7420686173206265656e207375626d69747465647061796d656e7420746f205f726563697069656e7420646964206e6f7420676f20746872757061796d656e7420746f205f72656c6179657220646964206e6f7420676f20746872754d65726b6c6520747265652069732066756c6c2e204e6f206d6f7265206c65617665732063616e2062652061646465644d6573736167652076616c756520697320737570706f73656420746f206265207a65726f20666f722045544820696e7374616e6365a2646970667358221220fe7102e9dd4f1b26396f8a32eea9060be2c8f064751eef45fe5f7b4ed24ce3b264736f6c6343000700003364656e6f6d696e6174696f6e2073686f756c642062652067726561746572207468616e20305f6c6576656c732073686f756c642062652067726561746572207468616e207a65726f",
  "immutableReferences": {
    "390": [
      {
        "length": 32,
        "start": 6687
      },
      {
        "length": 32,
        "start": 7679
      }
    ],
    "1092": [
      {
        "length": 32,
        "start": 2527
      },
      {
        "length": 32,
        "start": 3191
      }
    ]
  },
  "source": "// https://tornado.cash\n/*\n * d888888P                                           dP              a88888b.                   dP\n *    88                                              88             d8'   `88                   88\n *    88    .d8888b. 88d888b. 88d888b. .d8888b. .d888b88 .d8888b.    88        .d8888b. .d8888b. 88d888b.\n *    88    88'  `88 88'  `88 88'  `88 88'  `88 88'  `88 88'  `88    88        88'  `88 Y8ooooo. 88'  `88\n *    88    88.  .88 88       88    88 88.  .88 88.  .88 88.  .88 dP Y8.   .88 88.  .88       88 88    88\n *    dP    `88888P' dP       dP    dP `88888P8 `88888P8 `88888P' 88  Y88888P' `88888P8 `88888P' dP    dP\n * ooooooooooooooooooooooooooooooooooooooooooooooooooooooooooooooooooooooooooooooooooooooooooooooooooooooo\n */\n\n// SPDX-License-Identifier: MIT\npragma solidity ^0.7.0;\n\nimport \"./Tornado.sol\";\n\ncontract ETHTornado is Tornado {\n  constructor(\n    IVerifier _verifier,\n    IHasher _hasher,\n    uint256 _denomination,\n    uint32 _merkleTreeHeight\n  ) Tornado(_verifier, _hasher, _denomination, _merkleTreeHeight) {}\n\n  function _processDeposit() internal override {\n    require(msg.value == denomination, \"Please send `mixDenomination` ETH along with transaction\");\n  }\n\n  function _processWithdraw(\n    address payable _recipient,\n    address payable _relayer,\n    uint256 _fee,\n    uint256 _refund\n  ) internal override {\n    // sanity checks\n    require(msg.value == 0, \"Message value is supposed to be zero for ETH instance\");\n    require(_refund == 0, \"Refund value is supposed to be zero for ETH instance\");\n\n    (bool success, ) = _recipient.call{ value: denomination - _fee }(\"\");\n    require(success, \"payment to _recipient did not go thru\");\n    if (_fee > 0) {\n      (success, ) = _relayer.call{ value: _fee }(\"\");\n      require(success, \"payment to _relayer did not go thru\");\n    }\n  }\n}",
  "sourcePath": "/Users/gautam/Documents/semilla-contracts/contracts/ETHTornado.sol",
  "compiler": {
    "name": "solc",
    "version": "0.7.0+commit.9e61f92b.Emscripten.clang"
  },
  "schemaVersion": "3.2.3",
  "updatedAt": "2022-01-24T05:21:26.224Z",
  "devdoc": {
    "kind": "dev",
    "methods": {
      "deposit(bytes32)": {
        "details": "Deposit funds into the contract. The caller must send (for ETH) or approve (for ERC20) value equal to or `denomination` of this instance.",
        "params": {
          "_commitment": "the note commitment, which is PedersenHash(nullifier + secret)"
        }
      },
      "getLastRoot()": {
        "details": "Returns the last root"
      },
      "hashLeftRight(address,bytes32,bytes32)": {
        "details": "Hash 2 tree leaves, returns MiMC(_left, _right)"
      },
      "isKnownRoot(bytes32)": {
        "details": "Whether the root is present in the root history"
      },
      "isSpent(bytes32)": {
        "details": "whether a note is already spent "
      },
      "isSpentArray(bytes32[])": {
        "details": "whether an array of notes is already spent "
      },
      "withdraw(bytes,bytes32,bytes32,address,address,uint256,uint256)": {
        "details": "Withdraw a deposit from the contract. `proof` is a zkSNARK proof data, and input is an array of circuit public inputs `input` array consists of: - merkle root of all deposits in the contract - hash of unique deposit nullifier to prevent double spends - the recipient of funds - optional fee that goes to the transaction sender (usually a relay)"
      },
      "zeros(uint256)": {
        "details": "provides Zero (Empty) elements for a MiMC MerkleTree. Up to 32 levels"
      }
    },
    "version": 1
  },
  "userdoc": {
    "kind": "user",
    "methods": {},
    "version": 1
  }
}